{
  "contractName": "Election",
  "abi": [
    {
      "inputs": [],
      "payable": false,
      "stateMutability": "nonpayable",
      "type": "constructor"
    },
    {
      "constant": true,
      "inputs": [
        {
          "internalType": "uint256",
          "name": "",
          "type": "uint256"
        }
      ],
      "name": "candidates",
      "outputs": [
        {
          "internalType": "uint256",
          "name": "cId",
          "type": "uint256"
        },
        {
          "internalType": "string",
          "name": "name",
          "type": "string"
        },
        {
          "internalType": "uint256",
          "name": "voteCount",
          "type": "uint256"
        }
      ],
      "payable": false,
      "stateMutability": "view",
      "type": "function"
    },
    {
      "constant": true,
      "inputs": [],
      "name": "candidatesCount",
      "outputs": [
        {
          "internalType": "uint256",
          "name": "",
          "type": "uint256"
        }
      ],
      "payable": false,
      "stateMutability": "view",
      "type": "function"
    }
  ],
  "bytecode": "0x608060405234801561001057600080fd5b506100556040518060400160405280600481526020017f474f4b550000000000000000000000000000000000000000000000000000000081525061009e60201b60201c565b6100996040518060400160405280600781526020017f53414954414d410000000000000000000000000000000000000000000000000081525061009e60201b60201c565b6101be565b6001600081548092919060010191905055506040518060600160405280600154815260200182815260200160008152506000806001548152602001908152602001600020600082015181600001556020820151816001019080519060200190610108929190610119565b506040820151816002015590505050565b828054600181600116156101000203166002900490600052602060002090601f016020900481019282601f1061015a57805160ff1916838001178555610188565b82800160010185558215610188579182015b8281111561018757825182559160200191906001019061016c565b5b5090506101959190610199565b5090565b6101bb91905b808211156101b757600081600090555060010161019f565b5090565b90565b61020b806101cd6000396000f3fe608060405234801561001057600080fd5b50600436106100365760003560e01c80632d35a8a21461003b5780633477ee2e14610059575b600080fd5b61004361010e565b6040518082815260200191505060405180910390f35b6100856004803603602081101561006f57600080fd5b8101908080359060200190929190505050610114565b6040518084815260200180602001838152602001828103825284818151815260200191508051906020019080838360005b838110156100d15780820151818401526020810190506100b6565b50505050905090810190601f1680156100fe5780820380516001836020036101000a031916815260200191505b5094505050505060405180910390f35b60015481565b6000602052806000526040600020600091509050806000015490806001018054600181600116156101000203166002900480601f0160208091040260200160405190810160405280929190818152602001828054600181600116156101000203166002900480156101c65780601f1061019b576101008083540402835291602001916101c6565b820191906000526020600020905b8154815290600101906020018083116101a957829003601f168201915b505050505090806002015490508356fea265627a7a72315820a14c0a92a7a90d41b91b42fa84eb423ec6ff5e2103b66fd5c68aae6c9c72e87864736f6c63430005100032",
  "source": "// SPDX-License-Identifier: MIT\r\npragma solidity >=0.5.0;\r\n\r\ncontract Election {\r\n    //model a candidate\r\n    struct Candidate {\r\n        uint cId;\r\n        string name;\r\n        uint voteCount;\r\n    } // creating a structure for candidate whic contains name, id and votecount\r\n\r\n    //store candidate\r\n    mapping(uint => Candidate) public candidates;  //mapping maps/associates a data type to another\r\n    // here we are mapping candidatesCount(uint) to Candidate(struct) [similar to dict in python(key-value pair)]\r\n\r\n    //store Candidate count(because we cant know the size of the mappping anfd we cant iterate over the mapping)\r\n    uint public candidatesCount;\r\n\r\n    // add candidate function\r\n    function addCandidate (string memory _name) private { //we are using private on this function because we dont want anyothers to add candidates\r\n        candidatesCount++;\r\n        candidates[candidatesCount] = Candidate(candidatesCount,_name,0);\r\n    }\r\n\r\n    //constructor\r\n    constructor() public{\r\n        addCandidate(\"GOKU\");\r\n        addCandidate(\"SAITAMA\");\r\n    }\r\n}",
  "sourcePath": "C:\\Users\\User\\OneDrive\\Desktop\\E-voting-blockchain\\contracts\\Election.sol",
  "compiler": {
    "name": "solc",
    "version": "0.5.16+commit.9c3226ce.Emscripten.clang"
  },
  "schemaVersion": "3.4.4",
  "updatedAt": "2022-01-02T07:33:50.275Z",
  "devdoc": {
    "methods": {}
  },
  "userdoc": {
    "methods": {}
  }
}